{
  "contractName": "NVMToken",
  "abi": [
    {
      "anonymous": false,
      "inputs": [
        {
          "indexed": true,
          "internalType": "address",
          "name": "owner",
          "type": "address"
        },
        {
          "indexed": true,
          "internalType": "address",
          "name": "spender",
          "type": "address"
        },
        {
          "indexed": false,
          "internalType": "uint256",
          "name": "value",
          "type": "uint256"
        }
      ],
      "name": "Approval",
      "type": "event"
    },
    {
      "anonymous": false,
      "inputs": [
        {
          "indexed": false,
          "internalType": "address",
          "name": "account",
          "type": "address"
        }
      ],
      "name": "Paused",
      "type": "event"
    },
    {
      "anonymous": false,
      "inputs": [
        {
          "indexed": true,
          "internalType": "bytes32",
          "name": "role",
          "type": "bytes32"
        },
        {
          "indexed": true,
          "internalType": "bytes32",
          "name": "previousAdminRole",
          "type": "bytes32"
        },
        {
          "indexed": true,
          "internalType": "bytes32",
          "name": "newAdminRole",
          "type": "bytes32"
        }
      ],
      "name": "RoleAdminChanged",
      "type": "event"
    },
    {
      "anonymous": false,
      "inputs": [
        {
          "indexed": true,
          "internalType": "bytes32",
          "name": "role",
          "type": "bytes32"
        },
        {
          "indexed": true,
          "internalType": "address",
          "name": "account",
          "type": "address"
        },
        {
          "indexed": true,
          "internalType": "address",
          "name": "sender",
          "type": "address"
        }
      ],
      "name": "RoleGranted",
      "type": "event"
    },
    {
      "anonymous": false,
      "inputs": [
        {
          "indexed": true,
          "internalType": "bytes32",
          "name": "role",
          "type": "bytes32"
        },
        {
          "indexed": true,
          "internalType": "address",
          "name": "account",
          "type": "address"
        },
        {
          "indexed": true,
          "internalType": "address",
          "name": "sender",
          "type": "address"
        }
      ],
      "name": "RoleRevoked",
      "type": "event"
    },
    {
      "anonymous": false,
      "inputs": [
        {
          "indexed": true,
          "internalType": "address",
          "name": "from",
          "type": "address"
        },
        {
          "indexed": true,
          "internalType": "address",
          "name": "to",
          "type": "address"
        },
        {
          "indexed": false,
          "internalType": "uint256",
          "name": "value",
          "type": "uint256"
        }
      ],
      "name": "Transfer",
      "type": "event"
    },
    {
      "anonymous": false,
      "inputs": [
        {
          "indexed": false,
          "internalType": "address",
          "name": "account",
          "type": "address"
        }
      ],
      "name": "Unpaused",
      "type": "event"
    },
    {
      "inputs": [],
      "name": "DEFAULT_ADMIN_ROLE",
      "outputs": [
        {
          "internalType": "bytes32",
          "name": "",
          "type": "bytes32"
        }
      ],
      "stateMutability": "view",
      "type": "function"
    },
    {
      "inputs": [],
      "name": "MINTER_ROLE",
      "outputs": [
        {
          "internalType": "bytes32",
          "name": "",
          "type": "bytes32"
        }
      ],
      "stateMutability": "view",
      "type": "function"
    },
    {
      "inputs": [],
      "name": "PAUSER_ROLE",
      "outputs": [
        {
          "internalType": "bytes32",
          "name": "",
          "type": "bytes32"
        }
      ],
      "stateMutability": "view",
      "type": "function"
    },
    {
      "inputs": [
        {
          "internalType": "address",
          "name": "owner",
          "type": "address"
        },
        {
          "internalType": "address",
          "name": "spender",
          "type": "address"
        }
      ],
      "name": "allowance",
      "outputs": [
        {
          "internalType": "uint256",
          "name": "",
          "type": "uint256"
        }
      ],
      "stateMutability": "view",
      "type": "function"
    },
    {
      "inputs": [
        {
          "internalType": "address",
          "name": "spender",
          "type": "address"
        },
        {
          "internalType": "uint256",
          "name": "amount",
          "type": "uint256"
        }
      ],
      "name": "approve",
      "outputs": [
        {
          "internalType": "bool",
          "name": "",
          "type": "bool"
        }
      ],
      "stateMutability": "nonpayable",
      "type": "function"
    },
    {
      "inputs": [
        {
          "internalType": "address",
          "name": "account",
          "type": "address"
        }
      ],
      "name": "balanceOf",
      "outputs": [
        {
          "internalType": "uint256",
          "name": "",
          "type": "uint256"
        }
      ],
      "stateMutability": "view",
      "type": "function"
    },
    {
      "inputs": [
        {
          "internalType": "uint256",
          "name": "amount",
          "type": "uint256"
        }
      ],
      "name": "burn",
      "outputs": [],
      "stateMutability": "nonpayable",
      "type": "function"
    },
    {
      "inputs": [
        {
          "internalType": "address",
          "name": "account",
          "type": "address"
        },
        {
          "internalType": "uint256",
          "name": "amount",
          "type": "uint256"
        }
      ],
      "name": "burnFrom",
      "outputs": [],
      "stateMutability": "nonpayable",
      "type": "function"
    },
    {
      "inputs": [],
      "name": "cap",
      "outputs": [
        {
          "internalType": "uint256",
          "name": "",
          "type": "uint256"
        }
      ],
      "stateMutability": "view",
      "type": "function"
    },
    {
      "inputs": [],
      "name": "decimals",
      "outputs": [
        {
          "internalType": "uint8",
          "name": "",
          "type": "uint8"
        }
      ],
      "stateMutability": "view",
      "type": "function"
    },
    {
      "inputs": [
        {
          "internalType": "address",
          "name": "spender",
          "type": "address"
        },
        {
          "internalType": "uint256",
          "name": "subtractedValue",
          "type": "uint256"
        }
      ],
      "name": "decreaseAllowance",
      "outputs": [
        {
          "internalType": "bool",
          "name": "",
          "type": "bool"
        }
      ],
      "stateMutability": "nonpayable",
      "type": "function"
    },
    {
      "inputs": [
        {
          "internalType": "bytes32",
          "name": "role",
          "type": "bytes32"
        }
      ],
      "name": "getRoleAdmin",
      "outputs": [
        {
          "internalType": "bytes32",
          "name": "",
          "type": "bytes32"
        }
      ],
      "stateMutability": "view",
      "type": "function"
    },
    {
      "inputs": [
        {
          "internalType": "bytes32",
          "name": "role",
          "type": "bytes32"
        },
        {
          "internalType": "uint256",
          "name": "index",
          "type": "uint256"
        }
      ],
      "name": "getRoleMember",
      "outputs": [
        {
          "internalType": "address",
          "name": "",
          "type": "address"
        }
      ],
      "stateMutability": "view",
      "type": "function"
    },
    {
      "inputs": [
        {
          "internalType": "bytes32",
          "name": "role",
          "type": "bytes32"
        }
      ],
      "name": "getRoleMemberCount",
      "outputs": [
        {
          "internalType": "uint256",
          "name": "",
          "type": "uint256"
        }
      ],
      "stateMutability": "view",
      "type": "function"
    },
    {
      "inputs": [
        {
          "internalType": "bytes32",
          "name": "role",
          "type": "bytes32"
        },
        {
          "internalType": "address",
          "name": "account",
          "type": "address"
        }
      ],
      "name": "grantRole",
      "outputs": [],
      "stateMutability": "nonpayable",
      "type": "function"
    },
    {
      "inputs": [
        {
          "internalType": "bytes32",
          "name": "role",
          "type": "bytes32"
        },
        {
          "internalType": "address",
          "name": "account",
          "type": "address"
        }
      ],
      "name": "hasRole",
      "outputs": [
        {
          "internalType": "bool",
          "name": "",
          "type": "bool"
        }
      ],
      "stateMutability": "view",
      "type": "function"
    },
    {
      "inputs": [
        {
          "internalType": "address",
          "name": "spender",
          "type": "address"
        },
        {
          "internalType": "uint256",
          "name": "addedValue",
          "type": "uint256"
        }
      ],
      "name": "increaseAllowance",
      "outputs": [
        {
          "internalType": "bool",
          "name": "",
          "type": "bool"
        }
      ],
      "stateMutability": "nonpayable",
      "type": "function"
    },
    {
      "inputs": [
        {
          "internalType": "address",
          "name": "to",
          "type": "address"
        },
        {
          "internalType": "uint256",
          "name": "amount",
          "type": "uint256"
        }
      ],
      "name": "mint",
      "outputs": [],
      "stateMutability": "nonpayable",
      "type": "function"
    },
    {
      "inputs": [],
      "name": "name",
      "outputs": [
        {
          "internalType": "string",
          "name": "",
          "type": "string"
        }
      ],
      "stateMutability": "view",
      "type": "function"
    },
    {
      "inputs": [],
      "name": "pause",
      "outputs": [],
      "stateMutability": "nonpayable",
      "type": "function"
    },
    {
      "inputs": [],
      "name": "paused",
      "outputs": [
        {
          "internalType": "bool",
          "name": "",
          "type": "bool"
        }
      ],
      "stateMutability": "view",
      "type": "function"
    },
    {
      "inputs": [
        {
          "internalType": "bytes32",
          "name": "role",
          "type": "bytes32"
        },
        {
          "internalType": "address",
          "name": "account",
          "type": "address"
        }
      ],
      "name": "renounceRole",
      "outputs": [],
      "stateMutability": "nonpayable",
      "type": "function"
    },
    {
      "inputs": [
        {
          "internalType": "bytes32",
          "name": "role",
          "type": "bytes32"
        },
        {
          "internalType": "address",
          "name": "account",
          "type": "address"
        }
      ],
      "name": "revokeRole",
      "outputs": [],
      "stateMutability": "nonpayable",
      "type": "function"
    },
    {
      "inputs": [],
      "name": "symbol",
      "outputs": [
        {
          "internalType": "string",
          "name": "",
          "type": "string"
        }
      ],
      "stateMutability": "view",
      "type": "function"
    },
    {
      "inputs": [],
      "name": "totalSupply",
      "outputs": [
        {
          "internalType": "uint256",
          "name": "",
          "type": "uint256"
        }
      ],
      "stateMutability": "view",
      "type": "function"
    },
    {
      "inputs": [
        {
          "internalType": "address",
          "name": "recipient",
          "type": "address"
        },
        {
          "internalType": "uint256",
          "name": "amount",
          "type": "uint256"
        }
      ],
      "name": "transfer",
      "outputs": [
        {
          "internalType": "bool",
          "name": "",
          "type": "bool"
        }
      ],
      "stateMutability": "nonpayable",
      "type": "function"
    },
    {
      "inputs": [
        {
          "internalType": "address",
          "name": "sender",
          "type": "address"
        },
        {
          "internalType": "address",
          "name": "recipient",
          "type": "address"
        },
        {
          "internalType": "uint256",
          "name": "amount",
          "type": "uint256"
        }
      ],
      "name": "transferFrom",
      "outputs": [
        {
          "internalType": "bool",
          "name": "",
          "type": "bool"
        }
      ],
      "stateMutability": "nonpayable",
      "type": "function"
    },
    {
      "inputs": [],
      "name": "unpause",
      "outputs": [],
      "stateMutability": "nonpayable",
      "type": "function"
    },
    {
      "inputs": [
        {
          "internalType": "string",
          "name": "name",
          "type": "string"
        },
        {
          "internalType": "string",
          "name": "symbol",
          "type": "string"
        }
      ],
      "name": "initialize",
      "outputs": [],
      "stateMutability": "nonpayable",
      "type": "function"
    },
    {
      "inputs": [
        {
          "internalType": "uint256",
          "name": "cap",
          "type": "uint256"
        }
      ],
      "name": "initialize",
      "outputs": [],
      "stateMutability": "nonpayable",
      "type": "function"
    }
  ],
  "bytecode": "0x608060405234801561001057600080fd5b506122a5806100206000396000f3fe608060405234801561001057600080fd5b50600436106101da5760003560e01c806370a0823111610104578063a457c2d7116100a2578063d547741f11610071578063d547741f146103ab578063dd62ed3e146103be578063e63ab1e9146103d1578063fe4b84df146103d9576101da565b8063a457c2d71461036a578063a9059cbb1461037d578063ca15c87314610390578063d5391393146103a3576101da565b80639010d07c116100de5780639010d07c1461032757806391d148541461034757806395d89b411461035a578063a217fddf14610362576101da565b806370a08231146102f957806379cc67901461030c5780638456cb591461031f576101da565b8063355274ea1161017c57806340c10f191161014b57806340c10f19146102b857806342966c68146102cb5780634cd88b76146102de5780635c975abb146102f1576101da565b8063355274ea1461028257806336568abe1461028a578063395093511461029d5780633f4ba83a146102b0576101da565b806323b872dd116101b857806323b872dd14610232578063248a9ca3146102455780632f2ff15d14610258578063313ce5671461026d576101da565b806306fdde03146101df578063095ea7b3146101fd57806318160ddd1461021d575b600080fd5b6101e76103ec565b6040516101f4919061197e565b60405180910390f35b61021061020b366004611871565b61047e565b6040516101f4919061196a565b61022561049c565b6040516101f49190611975565b610210610240366004611836565b6104a2565b61022561025336600461189a565b610542565b61026b6102663660046118b2565b61055a565b005b610275610581565b6040516101f491906121cb565b610225610586565b61026b6102983660046118b2565b61058d565b6102106102ab366004611871565b6105d3565b61026b610622565b61026b6102c6366004611871565b610674565b61026b6102d936600461189a565b6106c6565b61026b6102ec3660046118f5565b6106da565b61021061075a565b6102256103073660046117ea565b610763565b61026b61031a366004611871565b61077e565b61026b6107ce565b61033a6103353660046118d4565b61081e565b6040516101f49190611956565b6102106103553660046118b2565b61083d565b6101e7610868565b610225610877565b610210610378366004611871565b61087c565b61021061038b366004611871565b6108f7565b61022561039e36600461189a565b61090b565b610225610922565b61026b6103b93660046118b2565b610946565b6102256103cc366004611804565b610968565b610225610993565b61026b6103e736600461189a565b6109b7565b6060609a80546103fb90612208565b80601f016020809104026020016040519081016040528092919081815260200182805461042790612208565b80156104745780601f1061044957610100808354040283529160200191610474565b820191906000526020600020905b81548152906001019060200180831161045757829003601f168201915b5050505050905090565b600061049261048b610aa9565b8484610aad565b5060015b92915050565b60995490565b60006104af848484610b61565b6001600160a01b0384166000908152609860205260408120816104d0610aa9565b6001600160a01b03166001600160a01b031681526020019081526020016000205490508281101561051c5760405162461bcd60e51b815260040161051390611dbb565b60405180910390fd5b61053785610528610aa9565b61053286856121f1565b610aad565b506001949350505050565b6000818152603360205260409020600101545b919050565b6105648282610c89565b600082815260656020526040902061057c9082610cc3565b505050565b601290565b6101915490565b610595610aa9565b6001600160a01b0316816001600160a01b0316146105c55760405162461bcd60e51b8152600401610513906120da565b6105cf8282610cd8565b5050565b60006104926105e0610aa9565b8484609860006105ee610aa9565b6001600160a01b03908116825260208083019390935260409182016000908120918b168152925290205461053291906121d9565b61064e7f65d7a28e3265b37a6474929f336521b332c1681b933f6cb9f3376673440d862a610355610aa9565b61066a5760405162461bcd60e51b815260040161051390611bb3565b610672610d5d565b565b6106a07f9f2df0fed2c77648de5860a4cc508cd0818c85b8b8a1ab4ceeef8d981c8956a6610355610aa9565b6106bc5760405162461bcd60e51b815260040161051390611e18565b6105cf8282610dcb565b6106d76106d1610aa9565b82610e8b565b50565b600054610100900460ff16806106f3575060005460ff16155b61070f5760405162461bcd60e51b815260040161051390611d5e565b600054610100900460ff1615801561073a576000805460ff1961ff0019909116610100171660011790555b6107448383610f71565b801561057c576000805461ff0019169055505050565b60fb5460ff1690565b6001600160a01b031660009081526097602052604090205490565b600061078c836103cc610aa9565b9050818110156107ae5760405162461bcd60e51b815260040161051390611e75565b6107c4836107ba610aa9565b61053285856121f1565b61057c8383610e8b565b6107fa7f65d7a28e3265b37a6474929f336521b332c1681b933f6cb9f3376673440d862a610355610aa9565b6108165760405162461bcd60e51b815260040161051390612020565b610672611015565b60008281526065602052604081206108369083611070565b9392505050565b60009182526033602090815260408084206001600160a01b0393909316845291905290205460ff1690565b6060609b80546103fb90612208565b600081565b6000806098600061088b610aa9565b6001600160a01b03908116825260208083019390935260409182016000908120918816815292529020549050828110156108d75760405162461bcd60e51b81526004016105139061207d565b6108ed6108e2610aa9565b8561053286856121f1565b5060019392505050565b6000610492610904610aa9565b8484610b61565b60008181526065602052604081206104969061107c565b7f9f2df0fed2c77648de5860a4cc508cd0818c85b8b8a1ab4ceeef8d981c8956a681565b6109508282611087565b600082815260656020526040902061057c90826110af565b6001600160a01b03918216600090815260986020908152604080832093909416825291909152205490565b7f65d7a28e3265b37a6474929f336521b332c1681b933f6cb9f3376673440d862a81565b600054610100900460ff16806109d0575060005460ff16155b6109ec5760405162461bcd60e51b815260040161051390611d5e565b600054610100900460ff16158015610a17576000805460ff1961ff0019909116610100171660011790555b610a8b6040518060400160405280600981526020017f4e564d20546f6b656e00000000000000000000000000000000000000000000008152506040518060400160405280600381526020017f4e564d0000000000000000000000000000000000000000000000000000000000815250610f71565b610a94826110c4565b80156105cf576000805461ff00191690555050565b3390565b6001600160a01b038316610ad35760405162461bcd60e51b815260040161051390611fc3565b6001600160a01b038216610af95760405162461bcd60e51b815260040161051390611c10565b6001600160a01b0380841660008181526098602090815260408083209487168084529490915290819020849055517f8c5be1e5ebec7d5bd14f71427d1e84f3dd0314c0f7b2291e5b200ac8c7c3b92590610b54908590611975565b60405180910390a3505050565b6001600160a01b038316610b875760405162461bcd60e51b815260040161051390611f2f565b6001600160a01b038216610bad5760405162461bcd60e51b815260040161051390611a2e565b610bb883838361115f565b6001600160a01b03831660009081526097602052604090205481811015610bf15760405162461bcd60e51b815260040161051390611c6d565b610bfb82826121f1565b6001600160a01b038086166000908152609760205260408082209390935590851681529081208054849290610c319084906121d9565b92505081905550826001600160a01b0316846001600160a01b03167fddf252ad1be2c89b69c2b068fc378daa952ba7f163c4a11628f55a4df523b3ef84604051610c7b9190611975565b60405180910390a350505050565b610c9d610c9583610542565b610355610aa9565b610cb95760405162461bcd60e51b815260040161051390611ac2565b6105cf828261116a565b6000610836836001600160a01b0384166111f1565b610ce2828261083d565b156105cf5760008281526033602090815260408083206001600160a01b03851684529091529020805460ff19169055610d19610aa9565b6001600160a01b0316816001600160a01b0316837ff6391f5c32d9c69d2a47ea670b442974b53935d1edc7fd64eb21e047a839171b60405160405180910390a45050565b610d6561075a565b610d815760405162461bcd60e51b815260040161051390611b1f565b60fb805460ff191690557f5db9ee0a495bf2e6ff9c91a7834c1ba4fdd244a5e8aa4e537bd38aeae4b073aa610db4610aa9565b604051610dc19190611956565b60405180910390a1565b6001600160a01b038216610df15760405162461bcd60e51b815260040161051390612137565b610dfd6000838361115f565b8060996000828254610e0f91906121d9565b90915550506001600160a01b03821660009081526097602052604081208054839290610e3c9084906121d9565b90915550506040516001600160a01b038316906000907fddf252ad1be2c89b69c2b068fc378daa952ba7f163c4a11628f55a4df523b3ef90610e7f908590611975565b60405180910390a35050565b6001600160a01b038216610eb15760405162461bcd60e51b815260040161051390611ed2565b610ebd8260008361115f565b6001600160a01b03821660009081526097602052604090205481811015610ef65760405162461bcd60e51b815260040161051390611b56565b610f0082826121f1565b6001600160a01b03841660009081526097602052604081209190915560998054849290610f2e9084906121f1565b90915550506040516000906001600160a01b038516907fddf252ad1be2c89b69c2b068fc378daa952ba7f163c4a11628f55a4df523b3ef90610b54908690611975565b600054610100900460ff1680610f8a575060005460ff16155b610fa65760405162461bcd60e51b815260040161051390611d5e565b600054610100900460ff16158015610fd1576000805460ff1961ff0019909116610100171660011790555b610fd961123b565b610fe161123b565b610fe961123b565b610ff383836112af565b610ffb61123b565b61100361134d565b61100b61123b565b61074483836113cb565b61101d61075a565b1561103a5760405162461bcd60e51b815260040161051390611d27565b60fb805460ff191660011790557f62e78cea01bee320cd4e420270b5ea74000d11b0c9f74754ebdbfc544b05a258610db4610aa9565b60006108368383611495565b6000610496826114ee565b611093610c9583610542565b6105c55760405162461bcd60e51b815260040161051390611cca565b6000610836836001600160a01b0384166114f2565b600054610100900460ff16806110dd575060005460ff16155b6110f95760405162461bcd60e51b815260040161051390611d5e565b600054610100900460ff16158015611124576000805460ff1961ff0019909116610100171660011790555b600082116111445760405162461bcd60e51b815260040161051390611a8b565b61019182905580156105cf576000805461ff00191690555050565b61057c83838361160f565b611174828261083d565b6105cf5760008281526033602090815260408083206001600160a01b03851684529091529020805460ff191660011790556111ad610aa9565b6001600160a01b0316816001600160a01b0316837f2f8788117e7eff1d82e926ec794901d17c78024a50270940304540a733656f0d60405160405180910390a45050565b60006111fd8383611661565b61123357508154600181810184556000848152602080822090930184905584548482528286019093526040902091909155610496565b506000610496565b600054610100900460ff1680611254575060005460ff16155b6112705760405162461bcd60e51b815260040161051390611d5e565b600054610100900460ff1615801561129b576000805460ff1961ff0019909116610100171660011790555b80156106d7576000805461ff001916905550565b600054610100900460ff16806112c8575060005460ff16155b6112e45760405162461bcd60e51b815260040161051390611d5e565b600054610100900460ff1615801561130f576000805460ff1961ff0019909116610100171660011790555b825161132290609a9060208601906116b9565b50815161133690609b9060208501906116b9565b50801561057c576000805461ff0019169055505050565b600054610100900460ff1680611366575060005460ff16155b6113825760405162461bcd60e51b815260040161051390611d5e565b600054610100900460ff161580156113ad576000805460ff1961ff0019909116610100171660011790555b60fb805460ff1916905580156106d7576000805461ff001916905550565b600054610100900460ff16806113e4575060005460ff16155b6114005760405162461bcd60e51b815260040161051390611d5e565b600054610100900460ff1615801561142b576000805460ff1961ff0019909116610100171660011790555b61143d6000611438610aa9565b611679565b6114697f9f2df0fed2c77648de5860a4cc508cd0818c85b8b8a1ab4ceeef8d981c8956a6611438610aa9565b6107447f65d7a28e3265b37a6474929f336521b332c1681b933f6cb9f3376673440d862a611438610aa9565b815460009082106114b85760405162461bcd60e51b8152600401610513906119d1565b8260000182815481106114db57634e487b7160e01b600052603260045260246000fd5b9060005260206000200154905092915050565b5490565b600081815260018301602052604081205480156116055760006115166001836121f1565b855490915060009061152a906001906121f1565b9050600086600001828154811061155157634e487b7160e01b600052603260045260246000fd5b906000526020600020015490508087600001848154811061158257634e487b7160e01b600052603260045260246000fd5b6000918252602090912001556115998360016121d9565b600082815260018901602052604090205586548790806115c957634e487b7160e01b600052603160045260246000fd5b60019003818190600052602060002001600090559055866001016000878152602001908152602001600020600090556001945050505050610496565b6000915050610496565b61161a838383611683565b6001600160a01b03831661057c57611630610586565b8161163961049c565b61164391906121d9565b111561057c5760405162461bcd60e51b815260040161051390611f8c565b60009081526001919091016020526040902054151590565b6105648282610cb9565b61057c83838361169483838361057c565b61169c61075a565b1561057c5760405162461bcd60e51b81526004016105139061216e565b8280546116c590612208565b90600052602060002090601f0160209004810192826116e7576000855561172d565b82601f1061170057805160ff191683800117855561172d565b8280016001018555821561172d579182015b8281111561172d578251825591602001919060010190611712565b5061173992915061173d565b5090565b5b80821115611739576000815560010161173e565b80356001600160a01b038116811461055557600080fd5b600082601f830112611779578081fd5b813567ffffffffffffffff8082111561179457611794612259565b604051601f8301601f1916810160200182811182821017156117b8576117b8612259565b6040528281528483016020018610156117cf578384fd5b82602086016020830137918201602001929092529392505050565b6000602082840312156117fb578081fd5b61083682611752565b60008060408385031215611816578081fd5b61181f83611752565b915061182d60208401611752565b90509250929050565b60008060006060848603121561184a578081fd5b61185384611752565b925061186160208501611752565b9150604084013590509250925092565b60008060408385031215611883578182fd5b61188c83611752565b946020939093013593505050565b6000602082840312156118ab578081fd5b5035919050565b600080604083850312156118c4578182fd5b8235915061182d60208401611752565b600080604083850312156118e6578182fd5b50508035926020909101359150565b60008060408385031215611907578182fd5b823567ffffffffffffffff8082111561191e578384fd5b61192a86838701611769565b9350602085013591508082111561193f578283fd5b5061194c85828601611769565b9150509250929050565b6001600160a01b0391909116815260200190565b901515815260200190565b90815260200190565b6000602080835283518082850152825b818110156119aa5785810183015185820160400152820161198e565b818111156119bb5783604083870101525b50601f01601f1916929092016040019392505050565b60208082526022908201527f456e756d657261626c655365743a20696e646578206f7574206f6620626f756e60408201527f6473000000000000000000000000000000000000000000000000000000000000606082015260800190565b60208082526023908201527f45524332303a207472616e7366657220746f20746865207a65726f206164647260408201527f6573730000000000000000000000000000000000000000000000000000000000606082015260800190565b60208082526015908201527f45524332304361707065643a2063617020697320300000000000000000000000604082015260600190565b6020808252602f908201527f416363657373436f6e74726f6c3a2073656e646572206d75737420626520616e60408201527f2061646d696e20746f206772616e740000000000000000000000000000000000606082015260800190565b60208082526014908201527f5061757361626c653a206e6f7420706175736564000000000000000000000000604082015260600190565b60208082526022908201527f45524332303a206275726e20616d6f756e7420657863656564732062616c616e60408201527f6365000000000000000000000000000000000000000000000000000000000000606082015260800190565b60208082526039908201527f45524332305072657365744d696e7465725061757365723a206d75737420686160408201527f76652070617573657220726f6c6520746f20756e706175736500000000000000606082015260800190565b60208082526022908201527f45524332303a20617070726f766520746f20746865207a65726f20616464726560408201527f7373000000000000000000000000000000000000000000000000000000000000606082015260800190565b60208082526026908201527f45524332303a207472616e7366657220616d6f756e742065786365656473206260408201527f616c616e63650000000000000000000000000000000000000000000000000000606082015260800190565b60208082526030908201527f416363657373436f6e74726f6c3a2073656e646572206d75737420626520616e60408201527f2061646d696e20746f207265766f6b6500000000000000000000000000000000606082015260800190565b60208082526010908201527f5061757361626c653a2070617573656400000000000000000000000000000000604082015260600190565b6020808252602e908201527f496e697469616c697a61626c653a20636f6e747261637420697320616c72656160408201527f647920696e697469616c697a6564000000000000000000000000000000000000606082015260800190565b60208082526028908201527f45524332303a207472616e7366657220616d6f756e742065786365656473206160408201527f6c6c6f77616e6365000000000000000000000000000000000000000000000000606082015260800190565b60208082526036908201527f45524332305072657365744d696e7465725061757365723a206d75737420686160408201527f7665206d696e74657220726f6c6520746f206d696e7400000000000000000000606082015260800190565b60208082526024908201527f45524332303a206275726e20616d6f756e74206578636565647320616c6c6f7760408201527f616e636500000000000000000000000000000000000000000000000000000000606082015260800190565b60208082526021908201527f45524332303a206275726e2066726f6d20746865207a65726f2061646472657360408201527f7300000000000000000000000000000000000000000000000000000000000000606082015260800190565b60208082526025908201527f45524332303a207472616e736665722066726f6d20746865207a65726f20616460408201527f6472657373000000000000000000000000000000000000000000000000000000606082015260800190565b60208082526019908201527f45524332304361707065643a2063617020657863656564656400000000000000604082015260600190565b60208082526024908201527f45524332303a20617070726f76652066726f6d20746865207a65726f2061646460408201527f7265737300000000000000000000000000000000000000000000000000000000606082015260800190565b60208082526037908201527f45524332305072657365744d696e7465725061757365723a206d75737420686160408201527f76652070617573657220726f6c6520746f207061757365000000000000000000606082015260800190565b60208082526025908201527f45524332303a2064656372656173656420616c6c6f77616e63652062656c6f7760408201527f207a65726f000000000000000000000000000000000000000000000000000000606082015260800190565b6020808252602f908201527f416363657373436f6e74726f6c3a2063616e206f6e6c792072656e6f756e636560408201527f20726f6c657320666f722073656c660000000000000000000000000000000000606082015260800190565b6020808252601f908201527f45524332303a206d696e7420746f20746865207a65726f206164647265737300604082015260600190565b6020808252602a908201527f45524332305061757361626c653a20746f6b656e207472616e7366657220776860408201527f696c652070617573656400000000000000000000000000000000000000000000606082015260800190565b60ff91909116815260200190565b600082198211156121ec576121ec612243565b500190565b60008282101561220357612203612243565b500390565b60028104600182168061221c57607f821691505b6020821081141561223d57634e487b7160e01b600052602260045260246000fd5b50919050565b634e487b7160e01b600052601160045260246000fd5b634e487b7160e01b600052604160045260246000fdfea264697066735822122039f77234650e24a480b86ef008413c28a68df31149d89d8d15c9ed3d516be26264736f6c63430008000033",
  "immutableReferences": {},
  "source": "// SPDX-License-Identifier: MIT\npragma solidity 0.8.0;\n\nimport \"@openzeppelin/contracts-upgradeable/token/ERC20/presets/ERC20PresetMinterPauserUpgradeable.sol\";\nimport \"@openzeppelin/contracts-upgradeable/token/ERC20/extensions/ERC20CappedUpgradeable.sol\";\n\n/**\n * @title NVM Token\n * @dev this contract is a Pausable ERC20 token with Burn and Mint functions.\n * NOTE: All calls to this contract should be made through\n * the proxy, including admin actions.\n * Any call to transfer against this contract should fail.\n */\ncontract NVMToken is\n    ERC20PresetMinterPauserUpgradeable,\n    ERC20CappedUpgradeable\n{\n    function initialize(uint256 cap) public initializer {\n        __ERC20PresetMinterPauser_init(\"NVM Token\", \"NVM\");\n        __ERC20Capped_init_unchained(cap);\n    }\n\n    function _beforeTokenTransfer(\n        address from,\n        address to,\n        uint256 amount\n    )\n        internal\n        virtual\n        override(ERC20CappedUpgradeable, ERC20PresetMinterPauserUpgradeable)\n    {\n        super._beforeTokenTransfer(from, to, amount);\n    }\n}\n",
  "sourcePath": "/Users/selimerunkut/dev_novem/erc20_nvm_token_truffle/contracts/NVMToken.sol",
  "compiler": {
    "name": "solc",
    "version": "0.8.0+commit.c7dfd78e.Emscripten.clang"
  },
  "schemaVersion": "3.3.4",
  "updatedAt": "2021-03-18T19:42:40.546Z",
  "devdoc": {
    "details": "this contract is a Pausable ERC20 token with Burn and Mint functions. NOTE: All calls to this contract should be made through the proxy, including admin actions. Any call to transfer against this contract should fail.",
    "kind": "dev",
    "methods": {
      "allowance(address,address)": {
        "details": "See {IERC20-allowance}."
      },
      "approve(address,uint256)": {
        "details": "See {IERC20-approve}. Requirements: - `spender` cannot be the zero address."
      },
      "balanceOf(address)": {
        "details": "See {IERC20-balanceOf}."
      },
      "burn(uint256)": {
        "details": "Destroys `amount` tokens from the caller. See {ERC20-_burn}."
      },
      "burnFrom(address,uint256)": {
        "details": "Destroys `amount` tokens from `account`, deducting from the caller's allowance. See {ERC20-_burn} and {ERC20-allowance}. Requirements: - the caller must have allowance for ``accounts``'s tokens of at least `amount`."
      },
      "cap()": {
        "details": "Returns the cap on the token's total supply."
      },
      "decimals()": {
        "details": "Returns the number of decimals used to get its user representation. For example, if `decimals` equals `2`, a balance of `505` tokens should be displayed to a user as `5,05` (`505 / 10 ** 2`). Tokens usually opt for a value of 18, imitating the relationship between Ether and Wei. This is the value {ERC20} uses, unless this function is overloaded; NOTE: This information is only used for _display_ purposes: it in no way affects any of the arithmetic of the contract, including {IERC20-balanceOf} and {IERC20-transfer}."
      },
      "decreaseAllowance(address,uint256)": {
        "details": "Atomically decreases the allowance granted to `spender` by the caller. This is an alternative to {approve} that can be used as a mitigation for problems described in {IERC20-approve}. Emits an {Approval} event indicating the updated allowance. Requirements: - `spender` cannot be the zero address. - `spender` must have allowance for the caller of at least `subtractedValue`."
      },
      "getRoleAdmin(bytes32)": {
        "details": "Returns the admin role that controls `role`. See {grantRole} and {revokeRole}. To change a role's admin, use {_setRoleAdmin}."
      },
      "getRoleMember(bytes32,uint256)": {
        "details": "Returns one of the accounts that have `role`. `index` must be a value between 0 and {getRoleMemberCount}, non-inclusive. Role bearers are not sorted in any particular way, and their ordering may change at any point. WARNING: When using {getRoleMember} and {getRoleMemberCount}, make sure you perform all queries on the same block. See the following https://forum.openzeppelin.com/t/iterating-over-elements-on-enumerableset-in-openzeppelin-contracts/2296[forum post] for more information."
      },
      "getRoleMemberCount(bytes32)": {
        "details": "Returns the number of accounts that have `role`. Can be used together with {getRoleMember} to enumerate all bearers of a role."
      },
      "grantRole(bytes32,address)": {
        "details": "Overload {grantRole} to track enumerable memberships"
      },
      "hasRole(bytes32,address)": {
        "details": "Returns `true` if `account` has been granted `role`."
      },
      "increaseAllowance(address,uint256)": {
        "details": "Atomically increases the allowance granted to `spender` by the caller. This is an alternative to {approve} that can be used as a mitigation for problems described in {IERC20-approve}. Emits an {Approval} event indicating the updated allowance. Requirements: - `spender` cannot be the zero address."
      },
      "mint(address,uint256)": {
        "details": "Creates `amount` new tokens for `to`. See {ERC20-_mint}. Requirements: - the caller must have the `MINTER_ROLE`."
      },
      "name()": {
        "details": "Returns the name of the token."
      },
      "pause()": {
        "details": "Pauses all token transfers. See {ERC20Pausable} and {Pausable-_pause}. Requirements: - the caller must have the `PAUSER_ROLE`."
      },
      "paused()": {
        "details": "Returns true if the contract is paused, and false otherwise."
      },
      "renounceRole(bytes32,address)": {
        "details": "Revokes `role` from the calling account. Roles are often managed via {grantRole} and {revokeRole}: this function's purpose is to provide a mechanism for accounts to lose their privileges if they are compromised (such as when a trusted device is misplaced). If the calling account had been granted `role`, emits a {RoleRevoked} event. Requirements: - the caller must be `account`."
      },
      "revokeRole(bytes32,address)": {
        "details": "Overload {revokeRole} to track enumerable memberships"
      },
      "symbol()": {
        "details": "Returns the symbol of the token, usually a shorter version of the name."
      },
      "totalSupply()": {
        "details": "See {IERC20-totalSupply}."
      },
      "transfer(address,uint256)": {
        "details": "See {IERC20-transfer}. Requirements: - `recipient` cannot be the zero address. - the caller must have a balance of at least `amount`."
      },
      "transferFrom(address,address,uint256)": {
        "details": "See {IERC20-transferFrom}. Emits an {Approval} event indicating the updated allowance. This is not required by the EIP. See the note at the beginning of {ERC20}. Requirements: - `sender` and `recipient` cannot be the zero address. - `sender` must have a balance of at least `amount`. - the caller must have allowance for ``sender``'s tokens of at least `amount`."
      },
      "unpause()": {
        "details": "Unpauses all token transfers. See {ERC20Pausable} and {Pausable-_unpause}. Requirements: - the caller must have the `PAUSER_ROLE`."
      }
    },
    "title": "NVM Token",
    "version": 1
  },
  "userdoc": {
    "kind": "user",
    "methods": {},
    "version": 1
  }
}